S01800004763634170706C69636174696F6E36392E737265631C
S113000071C00000D1C400008CC000008AC0000090
S113001088C0000086C0000084C0000082C00000C8
S113002080C000007EC000007CC000007AC00000D8
S113003078C0000076C0000074C0000072C00000E8
S113004070C00000CEC100006CC000006AC0000097
S113005068C0000066C0000064C0000062C0000008
S113006060C0000067C400005CC000005AC000000B
S113007058C0000056C0000054C0000052C0000028
S113008050C000004EC000004CC000004AC0000038
S113009048C0000046C0000044C0000042C0000048
S11300A040C000003EC000003CC000003AC0000058
S11300B038C0000036C0000034C0000032C0000068
S11300C030C000002EC000002CC000002AC0000078
S11300D028C0000026C0000024C0000022C0000088
S11300E020C0000011241FBECFEFD1E2DEBFCDBF80
S11300F000E00CBF12E0A0E0B2E0E8E1FAE000E0CA
S11301000BBF02C007900D92A630B107D9F721E1C9
S1130110A6E0B2E001C01D92A73CB207E1F783D08C
S113012079C46ECFE1ECF0E0808188698083E2ECF1
S1130130F0E080818660808387E68093C400089520
S1130140E9ECF0E0808188618083EAECF0E0808172
S11301508660808387E68093CC000895E0ECF0E02D
S1130160908195FFFDCF8093C6000895E8ECF0E000
S1130170908195FFFDCF8093CE00089584B5836868
S113018084BD85B5856085BD8091040287BD84B535
S1130190806284BD8091030288BD279A2F9A9D9A1C
S11301A0A59A0895589A81EE94E00197F1F700C05A
S11301B00000E9E6F0E0808182608083E89A089597
S11301C0E1E8F0E0808188608083808182608083C0
S11301D084EF91E09093890080938800EFE6F0E04B
S11301E08081826080830895883E23E092071CF01A
S11301F0885E93400895992314F488519C4F089580
S1130200E1ECF1E180E090E0F999FECF92BD81BD8F
S1130210F89A20B52193019687309105A9F781E0DA
S11302208093BE1108958FB780688FBF83B38360B6
S113023083BBB8DF85DF76DF80E090E097DF9EDF69
S1130240BFDF81E090E092DF82B1CFEFC2B988B125
S1130250C8B988EA80930A0180EA80930B01D0DF51
S113026010BA81B3C1BBE12CF12C01E010E0689419
S1130270CC24C3F8DD24D394C1ECD1E18FB18095B3
S113028080930E028E2D9F2DA801082E02C0440FCC
S1130290551F0A94E2F720910E0230E024233523FF
S11302A04217530721F480930D02F601408301960F
S11302B08830910549F78091BE118823D1F0888157
S11302C0F0E88F9FC00111249981892B8093190232
S11302D08A8120E8829FC00111249B81892B80930D
S11302E018028C81809304028D8180930302109202
S11302F0BE118FEF90E03ADF888190E037DF89818B
S113030090E034DF8A8190E031DF8B8190E02EDF52
S11303108091040290E02ADF8091030290E026DFBE
S1130320809101029091020201975EDF9C01220FED
S1130330331F820F931FFC01EE5FF94F8281082E59
S1130340000C990B13DF8091010290910202019736
S11303504BDF865E9D4FFC018081082E000C990BBB
S113036005DF8091060290E001DF80910702909101
S11303700802FCDE8FEF90E0F1DE809101029091A3
S11303800202019731DF9C01220F331F820F931F5A
S1130390FC01EE5FF94F8281082E000C990BDEDE22
S11303A08091160290911702D9DE809114029091E7
S11303B01502D4DE80911002882309F45FCFFE0178
S11303C08E2D9F2DF999FECF92BD81BD219120BD27
S11303D0FA9AF99A019687309105A1F710921002C2
S11303E04DCF1F920F920FB60F9211240BB60F929E
S11303F09F92AF92BF92CF92DF92EF92FF920F93B0
S11304001F932F933F934F935F936F937F938F9398
S11304109F93AF93BF93CF93DF93EF93FF93A0B1D9
S1130420A093BD11E6B1E093BC117091BA11609133
S1130430BB1127E030E0C1E0D0E00A2E000CBB0B7A
S11304400E2E000CFF0BCE01022E02C0880F991F46
S11304500A94E2F7AC014A235B238417950711F44D
S1130460722F6F5FAC014E235F238417950719F435
S1130470722F70956F5F2150310928F77093BA116C
S11304806093BB116150623008F083C0E0900102B8
S1130490F0900202972EF701EE0FFF1FEE0DFF1DE5
S11304A0EE5FF94F7283C0901202D090130287015D
S11304B0570124E0A21AB108C80196DEEC01C80174
S11304C00A9792DE9E01220F331FC20FD31FCE5F05
S11304D0D94F2A81022E000C330BAC01440F551F57
S11304E0840F951FFC01EE5FF94F8281281B3109AF
S11304F087FD3395C20ED31E015011090A151B0541
S1130500D9F6D0921302C0921202C70101976CDE91
S11305109C01220F331F820F931FFC01EE5FF94FE2
S11305208281981A90921102892D990C990B992322
S11305301CF49195819591090897E4F0C7010297FD
S113054053DEFC01EE0FFF1FE80FF91FEE5FF94FBA
S11305502281F701EE0FFF1FEE0DFF1DEE5FF94F35
S11305602283FC01E65EFD4F8081F701E65EFD4FCC
S1130570808306C0F701E65EFD4F809112028083FE
S113058010920C0210920B021092000210920902B7
S113059026C0C0910102D0910202CE01019724DE4F
S11305A0FC01EE0FFF1FE80FF91FEE5FF94F2281E8
S11305B0FE01EE0FFF1FEC0FFD1FEE5FF94F2283CC
S11305C0FC01E65EFD4F8081C65EDD4F888310929C
S11305D00C0210920B0210920002109209028091F8
S11305E0BA1191E0980F933008F07FC02091010276
S11305F030910202C90164E670E0E5D1892B29F447
S113060080910F028F5F80930F0280910F028830D8
S113061088F140911902F901EE0FFF1FE20FF31F59
S1130620EE5FF94F52815403C00111246AE070E077
S1130630CAD1FB0140911802D901A65EBD4F2C918D
S11306402403C001112464E670E0BDD1CF018853B6
S11306509F4F860F971F909317028093160288EC82
S113066090E08E1B9F0B861B970B90931502809333
S11306701402A8C040911902F901EE0FFF1FE20F06
S1130680F31FEE5FF94F52815403C00111249923E3
S11306900CF40796FC01F595E795F595E795F59526
S11306A0E79540911802D901A65EBD4F2C91240311
S11306B0C001112464E670E086D1809104029F0198
S11306C0280F311DC901860F971F9093170280933D
S11306D016028091030290E08E1B9F0B861B970BE2
S11306E090931502809314026DC08A5F8C3050F190
S11306F0409119022091010230910202F901EE0F9A
S1130700FF1F2E0F3F1FF901EE5FF94F22812403D3
S1130710C001112465E070E056D1809104029B0170
S1130720280F311D30931702209316028091030283
S113073090E0861B970B90931502809314021092FD
S11307400F0240C02091010230910202409119022F
S1130750F901EE0FFF1FE20FF31FEE5FF94F528115
S11307605403C001112499230CF40796FC01F59558
S1130770E795F595E795F595E79540911802D90128
S1130780A65EBD4F2C912403C001112464E670E0E1
S11307901AD1809104029F01280F311DC901860FCF
S11307A0971F90931702809316028091030290E0A2
S11307B08E1B9F0B861B970B90931502809314023C
S11307C010920F020091160210911702065F1F4F3C
S11307D01093170200931602C0911402D0911502CF
S11307E02A96D0931502C09314028091010290912D
S11307F002020196F9DC90930202809301020F3FFA
S1130800110534F08FEF90E0909317028093160255
S1130810CF3FD10534F08FEF90E090931502809391
S1130820140284B38C7F84BB8091160290911702CA
S113083099233CF481509F4F9093170280931602A2
S1130840A09A809114029091150299233CF481504E
S11308509F4F9093150280931402A19A2091BB118B
S11308602A3024F081E08093060204C080910602BD
S1130870813081F48091010290910202873E93407D
S113088049F480910702909108020196909308021E
S1130890809307028091070290910802883631E024
S11308A093074CF010921702109216021092150240
S11308B01092140209C0803D910534F02A3024F0CE
S11308C081E080930A0204C080910A02813041F4DD
S11308D0109217021092160210921502109214022E
S11308E08091160287BD8091140288BD1092130274
S11308F0109212021092BB11FF91EF91DF91CF91F0
S1130900BF91AF919F918F917F916F915F914F9123
S11309103F912F911F910F91FF90EF90DF90CF9017
S1130920BF90AF909F900F900BBE0F900FBE0F9093
S11309301F9018951F920F920FB60F9211240BB6A9
S11309400F928F939F93EF93FF939091C6008091A2
S1130950C011882371F08091BF11882354F0E82FCF
S1130960082E000CFF0BEF53FE4E90838F5F809395
S1130970BF118091BF1186303CF01092BF111092CC
S1130980C01181E08093BE119F3F19F481E08093F0
S1130990C011FF91EF919F918F910F900BBE0F901B
S11309A00FBE0F901F9018951F920F920FB60F92C3
S11309B011248F9381E0809310028F910F900FBECA
S11309C00F901F90189597FB072E16F4009406D0ED
S11309D077FD08D00BD007FC05D03EF490958195A7
S11309E09F4F0895709561957F4F0895AA1BBB1B77
S11309F051E107C0AA1FBB1FA617B70710F0A61B1B
S1130A00B70B881F991F5A95A9F780959095BC013B
S10B0A10CD010895F894FFCF15
S1090A18010700808000CC
S9030000FC
